{
  "contractName": "Coin",
  "abi": [
    {
      "inputs": [
        {
          "internalType": "uint256",
          "name": "inital",
          "type": "uint256"
        }
      ],
      "stateMutability": "nonpayable",
      "type": "constructor"
    },
    {
      "anonymous": false,
      "inputs": [
        {
          "indexed": false,
          "internalType": "address",
          "name": "from",
          "type": "address"
        },
        {
          "indexed": false,
          "internalType": "address",
          "name": "to",
          "type": "address"
        },
        {
          "indexed": false,
          "internalType": "uint256",
          "name": "amount",
          "type": "uint256"
        }
      ],
      "name": "Sent",
      "type": "event"
    },
    {
      "inputs": [],
      "name": "minter",
      "outputs": [
        {
          "internalType": "address",
          "name": "",
          "type": "address"
        }
      ],
      "stateMutability": "view",
      "type": "function"
    },
    {
      "inputs": [
        {
          "internalType": "address",
          "name": "receiver",
          "type": "address"
        },
        {
          "internalType": "uint256",
          "name": "amount",
          "type": "uint256"
        }
      ],
      "name": "mint",
      "outputs": [],
      "stateMutability": "nonpayable",
      "type": "function"
    },
    {
      "inputs": [],
      "name": "myBalance",
      "outputs": [
        {
          "internalType": "uint256",
          "name": "balance",
          "type": "uint256"
        }
      ],
      "stateMutability": "view",
      "type": "function"
    }
  ],
  "bytecode": "0x608060405234801561001057600080fd5b5060405161036f38038061036f8339818101604052602081101561003357600080fd5b8101908080519060200190929190505050336000806101000a81548173ffffffffffffffffffffffffffffffffffffffff021916908373ffffffffffffffffffffffffffffffffffffffff16021790555080600160008060009054906101000a900473ffffffffffffffffffffffffffffffffffffffff1673ffffffffffffffffffffffffffffffffffffffff1673ffffffffffffffffffffffffffffffffffffffff1681526020019081526020016000208190555050610276806100f96000396000f3fe608060405234801561001057600080fd5b50600436106100415760003560e01c8063075461721461004657806340c10f191461007a578063c9116b69146100c8575b600080fd5b61004e6100e6565b604051808273ffffffffffffffffffffffffffffffffffffffff16815260200191505060405180910390f35b6100c66004803603604081101561009057600080fd5b81019080803573ffffffffffffffffffffffffffffffffffffffff1690602001909291908035906020019092919050505061010a565b005b6100d06101d8565b6040518082815260200191505060405180910390f35b60008054906101000a900473ffffffffffffffffffffffffffffffffffffffff1681565b60008054906101000a900473ffffffffffffffffffffffffffffffffffffffff1673ffffffffffffffffffffffffffffffffffffffff163373ffffffffffffffffffffffffffffffffffffffff161461016257600080fd5b789f4f2726179a224501d762422c946590d91000000000000000811061018757600080fd5b80600160008473ffffffffffffffffffffffffffffffffffffffff1673ffffffffffffffffffffffffffffffffffffffff168152602001908152602001600020600082825401925050819055505050565b6000600160008060009054906101000a900473ffffffffffffffffffffffffffffffffffffffff1673ffffffffffffffffffffffffffffffffffffffff1673ffffffffffffffffffffffffffffffffffffffff1681526020019081526020016000205490509056fea2646970667358221220b255c6171bbb07f28dce339aa4913803328797300a14b89dad800080a43f424264736f6c634300060c0033",
  "immutableReferences": {},
  "source": "pragma solidity >=0.5.0 <0.7.0;\r\n\r\ncontract Coin {\r\n  address public minter;\r\n  mapping (address => uint) private balances;\r\n\r\n  event Sent(address from, address to, uint amount);\r\n\r\n  constructor(uint inital) public {\r\n    minter = msg.sender;\r\n    balances[minter] = inital;\r\n  }\r\n\r\n  function mint(address receiver, uint amount) public {\r\n    require(msg.sender == minter);\r\n    require(amount < 1e60);\r\n    balances[receiver] += amount;\r\n  }\r\n\r\n  function myBalance() public view returns(uint balance){\r\n    return balances[minter];\r\n  }\r\n}\r\n\r\ncontract Factory {\r\n  bytes contractBytecode = type(Coin).creationCode;\r\n  address[] public groups;\r\n\r\n  function deployer(uint _inital) public {\r\n    bytes memory bytecode = abi.encodePacked(contractBytecode, abi.encode(_inital));\r\n    address addr;\r\n\r\n    assembly {\r\n      addr := create2(0, add(bytecode, 0x20), mload(bytecode), 0)\r\n      if iszero(extcodesize(addr)) {\r\n        revert(0, 0)\r\n      }\r\n    }\r\n    \r\n    groups.push(addr);\r\n  }\r\n   \r\n}",
  "sourcePath": "/d/Code/Conflux/create/contracts/Factory.sol",
  "compiler": {
    "name": "solc",
    "version": "0.6.12+commit.27d51765.Linux.g++"
  },
  "schemaVersion": "3.2.0",
  "updatedAt": "2021-04-08T13:32:55.794Z",
  "devdoc": {
    "kind": "dev",
    "methods": {},
    "version": 1
  },
  "userdoc": {
    "kind": "user",
    "methods": {},
    "version": 1
  }
}